:20000000F0ECF0EDF0EFF0F1F0F3F0F5F0F7F0FBF20DF21FF24CF268F282F29DF2CCF35B16
:0D002000F370F394000000000000000000E9
:20F00000526574726F2036383039204B65726E656C20524F4D2056302E310A00456D756CBC
:20F0200061746F7220636F6D70696C65642000556E6465722047504C205633204C69736338
:20F04000656E73650A00436F707972696768742032303234204279204A6179204661726999
:20F0600065730A0A0052656164790A00636C7300636F6C6F72006C6F6164006578656300FF
:20F080007265736574006469720063640063686469720065786974007175697400FFF1D3FD
:20F0A000F1D8F1DDF1E2F1E7F1ECF1F1F1F6F1FBF2004552524F523A20436F6D6D616E64E7
:20F0C000204E6F7420466F756E640A006E9F00006E9F00026E9F00046E9F00066E9F000864
:20F0E0006E9F000A6E9F000C6E9F000E3920FE20FE20FE20FE20FE20FE20FE8E02006F803B
:20F100008C040026F910CE0400860CB7FE14860EB7FE0086B4B70026CC20B4BDF2097FFECE
:20F120003D8EFE406F808CFF402DF98EF000BDF2648EF01CBDF2648602B7FF53B6FF5E27DD
:20F1400005BDF21B20F6860ABDF21B8EF02FBDF2648EF046BDF2648EF065BDF26486FFB7A7
:20F16000FE3F7FFE3D7FFE408EFE406F808CFF402DF9BDF2C8BDF3CF7D0100270A81FF27E3
:20F180000D488EF09EAD967DFE4027E620C98EF0B2BDF26420F120FE434C530A00434F4CCE
:20F1A0004F520A004C4F41440A00455845430A0052455345540A004449520A0043440A0044
:20F1C00043484449520A00455849540A00515549540A008EF198202D8EF19D20288EF1A43F
:20F1E00020238EF1AA201E8EF1B020198EF1B720148EF1BC200F8EF1C0200A8EF1C7200555
:20F200008EF1CD2000BDF264396E9F001034108E0400ED81BCFE022DF935906E9F001234DB
:20F22000165D2603F600264D271C810A2605BDF2482013BDF27EED847C0024B60024B1FEDF
:20F24000052D03BDF24835966E9F001434167F00247C0025B60025B1FE072D067A0025BDE8
:20F26000F29935966E9F001634561F13BDF27EA6C027092B07BDF21B300120F335D66E9F3E
:20F2800000183406B60025F6FE05583D8E0400308BF6002458308535866E9F001A34568E45
:20F2A00004001F13F6FE05584F33CBECC1ED8111B3FE022DF68620A781BCFE022DF97DFE4D
:20F2C0003E27037A002835D66E9F001C3457FC0024FD00278601B7FE3EFC0027FD0024CE95
:20F2E000FE40F6FE3DF70029F600267D0029270C7A0029A6C02705BDF21B20EF8620F6FEE2
:20F300001754545454C40F6DC42702A6C0BDF27EED847C0024F60026A6C02705BDF21B201D
:20F32000F78620F60026BDF27E8620F60026ED84B6FE2C27A4810D26A07FFE3EBDF27E8647
:20F3400020F60026ED1EFC0027FD0024F600268EFE40BDF26435D76E9F001E3405F6FE2C97
:20F3600026FBF6FE2A27FBB6FE2C35856E9F002034018DE381302DFA8139231281412DF218
:20F380008146230A81612DEA8166230220E435816E9F002234018DBF81302DFA8139230253
:20F3A00020F4358134066D8426066DA4271C200E6DA42710A680A1A02D042E0820E8860105
:20F3C000810220098602810120034F8100358634058EFE40108E0100A68081412D06815A2F
:20F3E0002E028A20A7A026F086FFA7A48E0100A68081FF271A8127270C812227088120261C
:20F40000EE6F1F20EAA18027E681FF271020F6860ABDF21B108EF06C8E01008D023585340B
:1BF42000651F134F1F31BDF3A4270E4CE6A0C1FF27055D26F720ED86FF35E52E
:10FFF000F0CCF0D0F0D4F0D8F0DCF0E0F0E4F0E8B1
:00000001FF
