:20000000F08CF08EF090F092F094F096F098F09CF117F129F156F172F18CF1A7F1D600001E
:0700200000000000000000D9
:20F00000526574726F2036383039204B65726E656C20524F4D2056302E310A00456D756CBC
:20F0200061746F7220636F6D70696C65642000556E6465722047504C205633204C69736338
:20F04000656E73650A00436F707972696768742032303234204279204A6179204661726999
:20F0600065730A0A0052656164790A006E9F00006E9F00026E9F00046E9F00066E9F000850
:20F080006E9F000A6E9F000C6E9F000E20FE20FE20FE20FE20FE20FE20FE20FE8E02006F36
:20F0A000808C040026F910CE0400860CB7FE14860EB7FE0086B4B70020CC20B4BDF1137FAA
:20F0C000FE3D8EFE406F808CFF402DF98EF000BDF16E8EF01CBDF16E8602B7FF53B6FF5E55
:20F0E0002705BDF12520F6860ABDF1258EF02FBDF16E8EF046BDF16E8EF065BDF16EBDF142
:20F10000D2BDF1527FFE3D7DFE4027F27FFE4020E720FE6E9F001034108E0400ED81BCFE92
:20F12000022DF935906E9F001234165D2603F600204D271C810A2605BDF1522013BDF1882E
:20F14000ED847C001EB6001EB1FE052D03BDF15235966E9F001434167F001E7C001FB600C8
:20F160001FB1FE072D067A001FBDF1A335966E9F001634561F13BDF188A6C027092B07BD38
:20F18000F125300120F335D66E9F00183406B6001FF6FE05583D8E0400308BF6001E58305F
:20F1A0008535866E9F001A34568E04001F13F6FE05584F33CBECC1ED8111B3FE022DF68674
:20F1C00020A781BCFE022DF97DFE3E27037A002235D66E9F001C3457FC001EFD0021860108
:20F1E000B7FE3EFC0021FD001ECEFE40F6FE3DF70023F600207D0023270C7A0023A6C0277A
:20F2000005BDF12520EF8620F6FE1754545454C40F6DC42702A6C0BDF188ED847C001EF63C
:20F220000020A6C02705BDF12520F78620F60020BDF1888620F60020ED84B6FE2C27A481E7
:20F240000D26A07FFE3EBDF1888620F60020ED1EFC0021FD001EF600208EFE40BDF16E35B8
:01F26000D7D6
:10FFF000F06CF070F074F078F07CF080F084F088B1
:00000001FF
