:20000000F0F3F0F4F0F6F0F8F0FAF0FCF0FEF102F2EDF305F32FF34BF365F380F3AFF42FCD
:0D002000F444F4680000000000000000003F
:20F00000526574726F2036383039204B65726E656C20524F4D2056302E330A00456D756CBA
:20F0200061746F7220636F6D70696C65642000556E6465722047504C205633204C69736338
:20F04000656E73650A00436F707972696768742032303234204279204A6179204661726999
:20F0600065730A0A0052656164790A00636C7300636F6C6F72006C6F6164006578656300FF
:20F0800072657365740064697200636400636864697200657869740071756974006D6F6480
:20F0A0006500FFF1EAF206F25DF28DF292F298F2AAF2AAF2C4F2C4F2CA4552524F523A20F9
:20F0C000436F6D6D616E64204E6F7420466F756E640A006E9F00006E9F00026E9F00046E5F
:20F0E0009F00066E9F00086E9F000A6E9F000C6E9F000E3920FE20FE20FE20FE20FE20FE1E
:20F1000020FE8E02006F808C040026F910CE0400CCF0F3FD0000860CB7FE148600B7FE007F
:20F1200086B4B70026CC20B4BDF2E97FFE3D8EFE406F808CFF402DF98EF000BDF3478EF027
:20F140001CBDF3478602B7FF53B6FF5E2705BDF30120F6860ABDF3018EF02FBDF3478EF0A2
:20F1600046BDF347F600268EF065BDF34786FFB7FE3F7FFE3D7FFE408EFE406F808CFF40E6
:20F180002DF9BDF3ABBDF4A57D0100270D81FF2710483001108EF0A3ADB67DFE4027E3203D
:20F1A000C38EF0B9BDF34720F1434C530A00434F4C4F520A004C4F41440A00455845430A7F
:20F1C0000052455345540A004449520A0043440A0043484449520A00455849540A005155CA
:20F1E00049540A004D4F44450A006D84270FA68481FF2709BDF6124D2703B700268620F683
:20F200000026BDF2E9396D84270DBDF6124D270781FF2703B70026394552524F523A2046A8
:20F22000696C65204E6F7420466F756E640A004552524F523A2046696C65204E6F74204FF9
:20F2400070656E0A004552524F523A2057726F6E672046696C6520547970650A00BDF2DE77
:20F260008609B7FF53B6FF528180271A8120270E8104270220168EF245BDF347200E8EF289
:20F280002FBDF34720068EF218BDF34739AD9F0000398600B7FF53398D44860BB7FF53B6EC
:20F2A000FF5F2705BDF30120F6398D32860DB7FF53860EB7FF537FFF5DB6FF5E2705BDF302
:20F2C0000120F6398601B7FF53396D84270BBDF612B7FE008620BDF2E939BDF347397FFF53
:20F2E0005DA680B7FF5E26F9396E9F001034108E0400ED81BCFE022DF97F00247F00253560
:20F30000906E9F00123417F600264D271C810A2605BDF32B2013BDF361ED847C0024B600AB
:20F3200024B1FE052D03BDF32B35976E9F001434167F00247C0025B60025B1FE072D067A31
:20F340000025BDF37C35966E9F001634561F13BDF361A6C027092B07BDF301300120F335AF
:20F36000D66E9F00183406B60025F6FE05583D8E0400308BF6002458308535866E9F001A99
:20F3800034568E04001F13F6FE05584F33CBECC1ED8111B3FE022DF68620A781BCFE022DC8
:20F3A000F97DFE3E27037A002835D66E9F001C3457FC0024FD00278601B7FE3EFC0027FD32
:20F3C0000024CEFE40F6FE3DF700297D0029270C7A0029A6C02705BDF30120EF8620F6FE44
:20F3E0001754545454C40F6DC42702A6C0BDF361ED847C0024A6C02705BDF30120F78620F1
:20F40000BDF3618620F60026ED84B6FE2C27AD810D26A97FFE3EBDF3618620ED1EFC0027F7
:20F42000FD00248EFE40BDF34735D76E9F001E3405F6FE2C26FBF6FE2A27FBB6FE2C35855D
:20F440006E9F002034018DE381302DFA8139231281412DF28146230A81612DEA8166230239
:20F4600020E435816E9F002234018DBF81302DFA8139230220F4358134066D8426066DA439
:20F48000271E20106DA42712A6808A20A1A02D042E0820E6860181022009860281012003CF
:20F4A0004F8100358634058EFE40108E0100A68081412D04815A2E00A7A026F286FFA7A4CC
:20F4C0008E0100A680272381FF271F8127270C81222708812026EC6F1F20E8A18027E46DD8
:20F4E0008426F8BDF32B86FF200E860ABDF301108EF06C8E01008D02358534651F134F1F90
:20F5000031BDF478270E4CE6A0C1FF27055D26F720ED86FF35E53407EC84EDA4EC02ED223F
:20F52000358734017FFF627FFF63FDFF64358134017FFF6C7FFF6DFDFF6E358134017FFF26
:20F54000767FFF77FDFF78358134017FFF667FFF67FDFF68358134017FFF707FFF71FDFFF0
:20F5600072358134017FFF7A7FFF7BFDFF7C35813401FCFF6435813401FCFF6E358134013C
:20F58000FCFF7835813401FCFF6835813401FCFF7235813401FCFF7C358134417FFF667F62
:20F5A000FF677FFF68B7FF697FFF707FFF717FFF72F7FF731F30F7FF7EFCFF7C35C1341135
:20F5C0008EFF608D14359134118EFF6A8D0B359134118EFF748D02359134036F84A601BD14
:20F5E000F30126F935833431108EFF608D1635B13431108EFF6A8D0C35B13431108EFF74F4
:20F600008D0235B134316FA0A6802704A7A420F835B13415E684C1242708BDF5E6B6FF69EA
:20F6200020123001E6808D0E585858583404E6808D04AAE035953404C0302B0CC109230433
:0FF64000CA20C027C10F2302C6FFE1E01F98397F
:10FFF000F0D3F0D7F0DBF0DFF0E3F0E7F0EBF0EF79
:00000001FF
