:20000000F0F3F0F4F0F6F0F8F0FAF0FCF0FEF102F249F261F28BF2A7F2C1F2DCF30BF38BF3
:0D002000F3A0F3C400000000000000000089
:20F00000526574726F2036383039204B65726E656C20524F4D2056302E330A00456D756CBA
:20F0200061746F7220636F6D70696C65642000556E6465722047504C205633204C69736338
:20F04000656E73650A00436F707972696768742032303234204279204A6179204661726999
:20F0600065730A0A0052656164790A00636C7300636F6C6F72006C6F6164006578656300FF
:20F0800072657365740064697200636400636864697200657869740071756974006D6F6480
:20F0A0006500FFF1E4F1FAF20CF211F216F21CF221F226F22BF22BF2314552524F523A20A9
:20F0C000436F6D6D616E64204E6F7420466F756E640A006E9F00006E9F00026E9F00046E5F
:20F0E0009F00066E9F00086E9F000A6E9F000C6E9F000E3920FE20FE20FE20FE20FE20FE1E
:20F1000020FE8E02006F808C040026F910CE0400860CB7FE148603B7FE0086B4B70026CC45
:20F1200020B4BDF2457FFE3D8EFE406F808CFF402DF98EF000BDF2A38EF01CBDF2A386025D
:20F14000B7FF53B6FF5E2705BDF25D20F6860ABDF25D8EF02FBDF2A38EF046BDF2A3F6009E
:20F16000268EF065BDF2A386FFB7FE3F7FFE3D7FFE408EFE406F808CFF402DF9BDF307BD24
:20F18000F3FF7D0100270D81FF2710483001108EF0A3ADB67DFE4027E320C38EF0B9BDF279
:20F1A000A320F1434C530A00434F4C4F520A004C4F41440A00455845430A0052455345544A
:20F1C0000A004449520A0043440A0043484449520A00455849540A00515549540A004D4F0A
:20F1E00044450A006D842709BDF5674D2703B700268620F60026BDF245396D84270DBDF528
:20F20000674D270781FF2703B70026398EF1AF20308EF1B5202B8600B7FF53398EF1C22026
:20F22000208EF1C7201B8EF1CB20168601B7FF53396D84270BBDF567B7FE008620BDF24559
:20F2400039BDF2A3396E9F001034108E0400ED81BCFE022DF97F00247F002535906E9F008E
:20F26000123417F600264D271C810A2605BDF2872013BDF2BDED847C0024B60024B1FE055B
:20F280002D03BDF28735976E9F001434167F00247C0025B60025B1FE072D067A0025BDF27B
:20F2A000D835966E9F001634561F13BDF2BDA6C027092B07BDF25D300120F335D66E9F0030
:20F2C000183406B60025F6FE05583D8E0400308BF6002458308535866E9F001A34568E0401
:20F2E000001F13F6FE05584F33CBECC1ED8111B3FE022DF68620A781BCFE022DF97DFE3ED3
:20F3000027037A002835D66E9F001C3457FC0024FD00278601B7FE3EFC0027FD0024CEFE94
:20F3200040F6FE3DF700297D0029270C7A0029A6C02705BDF25D20EF8620F6FE1754545466
:20F3400054C40F6DC42702A6C0BDF2BDED847C0024A6C02705BDF25D20F78620BDF2BD86FC
:20F3600020F60026ED84B6FE2C27AD810D26A97FFE3EBDF2BD8620ED1EFC0027FD00248E25
:20F38000FE40BDF2A335D76E9F001E3405F6FE2C26FBF6FE2A27FBB6FE2C35856E9F002025
:20F3A00034018DE381302DFA8139231281412DF28146230A81612DEA8166230220E435814D
:20F3C0006E9F002234018DBF81302DFA8139230220F4358134066D8426066DA4271C200E23
:20F3E0006DA42710A680A1A02D042E0820E88601810220098602810120034F8100358634D0
:20F40000058EFE40108E0100A68081412D06815A2E028A20A7A026F086FFA7A48E0100A64A
:20F420008081FF271A8127270C81222708812026EE6F1F20EAA18027E681FF271020F68610
:20F440000ABDF25D108EF06C8E01008D02358534651F134F1F31BDF3D4270E4CE6A0C1FF0F
:20F4600027055D26F720ED86FF35E53407EC84EDA4EC02ED22358734017FFF627FFF63FD52
:20F48000FF64358134017FFF6C7FFF6DFDFF6E358134017FFF767FFF77FDFF7835813401AC
:20F4A0007FFF667FFF67FDFF68358134017FFF707FFF71FDFF72358134017FFF7A7FFF7B0D
:20F4C000FDFF7C35813401FCFF6435813401FCFF6E35813401FCFF7835813401FCFF683535
:20F4E000813401FCFF7235813401FCFF7C358134417FFF667FFF677FFF68B7FF697FFF70A0
:20F500007FFF717FFF72F7FF731F30F7FF7EFCFF7C35C134118EFF608D14359134118EFF08
:20F520006A8D0B359134118EFF748D02359134036F84A601BDF25D26F935833431108EFFB2
:20F54000608D1635B13431108EFF6A8D0C35B13431108EFF748D0235B134316FA0A680272B
:20F5600004A7A420F835B13415E680C1242708BDF53BB6FF692010E6808D0E5858585834AB
:20F5800004E6808D04AAE035953404C0302B0CC1092304CA20C027C10F2302C6FFE1E01F61
:02F5A000983998
:10FFF000F0D3F0D7F0DBF0DFF0E3F0E7F0EBF0EF79
:00000001FF
