:10000000F160F161F163F165F167F169F16BF16F35
:20F00000526574726F2036383039204B65726E656C20524F4D2056302E330A00456D756CBA
:20F0200061746F7220636F6D70696C65642000556E6465722047656E6572616C205075626A
:20F040006C6963204C697363656E7365202847504C205633290A00436F7079726967687462
:20F060002028432920323032342D32303235204279204A6179204661726965730A0A0052FF
:20F08000656164790A00636C7300636F6C6F72006C6F6164006578656300726573657400FA
:20F0A00064697200636400636864697200657869740071756974006D6F646500FFF226F215
:20F0C00042F299F2D4F2D9F2DFF2F1F2F1F30BF30CF3124552524F523A20436F6D6D616EFA
:20F0E00064204E6F7420466F756E640A00F326F33EF368F384F39EF3BAF3E9F469F47EF43C
:20F10000A2F4B6F4E7F540F560F570F581F592F5A3F5B4F5C5F5D6F5E1F5ECF5F7F602F685
:20F120000DF618F640F64DF65AF674F681F68EF6ADF6BBF6C9F6E500000000000000000098
:20F140006E9F00006E9F00026E9F00046E9F00066E9F00086E9F000A6E9F000C6E9F000E0F
:20F160003920FE20FE20FE20FE20FE20FE20FE8EF0ED108E0010A680A7A08CF1402DF78E8F
:20F1800002006F808C040026F910CE0400CCF160FD0000860CB7FE148600B7FE0086B4B74C
:20F1A000005CCC20B4BDF3227FFE3D8EFE406F808CFF402DF98EF000BDF3808EF01CBDF323
:20F1C000808602B7FF53B6FF5C2705BDF33A20F6860ABDF33A8EF02FBDF3808EF057BDF305
:20F1E00080F6005C8EF07FBDF38086FFB7FE3F7FFE3D7FFE408EFE406F808CFF402DF9BDB7
:20F20000F3E5BDF4E37D0100270D81FF2710483001108EF0BDADB67DFE4027E320C38EF0CC
:20F22000D3BDF38020F16D84270FA68481FF2709BDF6E14D2703B7005C8620F6005CBDF3F3
:20F2400022396D84270DBDF6E14D270781FF2703B7005C394552524F523A2046696C6520A5
:20F260004E6F7420466F756E640A004552524F523A2046696C65204E6F74204F70656E0AC6
:20F28000004552524F523A2057726F6E672046696C6520547970650A00BDF2C9860AB7FF53
:20F2A00053B6FF528101271A8102270E8105270220168EF281BDF380200E8EF26BBDF3801A
:20F2C00020068EF254BDF380397FFF5BA680B7FF5C26F939AD9F0000398600B7FF53398D88
:20F2E000E8860CB7FF53B6FF5D2705BDF33A20F6398DD6860EB7FF53860FB7FF537FFF5B9D
:20F30000B6FF5C2705BDF33A20F639128601B7FF53396D84270BBDF6E1B7FE008620BDF3DA
:20F3200022396E9F001034108E0400ED81BCFE022DF97F005A7F005B35906E9F001234174D
:20F34000F6005C4D271C810A2605BDF3642013BDF39AED847C005AB6005AB1FE052D03BD8C
:20F36000F36435976E9F001434167F005A7C005BB6005BB1FE072D067A005BBDF3B635964F
:20F380006E9F001634561F13BDF39AA6C027092B07BDF33A300120F335D66E9F00183406E4
:20F3A000B6005BF6FE05583D8E0400308BF6005A584F308B35866E9F001A34568E04001F92
:20F3C00013F6FE05584F33CBECC1ED8111B3FE022DF68620A781BCFE022DF97DFE3E2703E7
:20F3E0007A005E35D66E9F001C3457FC005AFD005D8601B7FE3EFC005DFD005ACEFE40F69A
:20F40000FE3DF7005F7D005F270C7A005FA6C02705BDF33A20EF8620F6FE1754545454C423
:20F420000F6DC42702A6C0BDF39AED847C005AA6C02705BDF33A20F78620BDF39A8620F64D
:20F44000005CED84B6FE2C27AD810D26A97FFE3EBDF39A8620ED1EFC005DFD005A8EFE409C
:20F46000BDF38035D76E9F001E3405F6FE2C26FBF6FE2A27FBB6FE2C35856E9F002034016F
:20F480008DE381302DFA8139231281412DF28146230A81612DEA8166230220E435816E9F94
:20F4A000002234018DBF81302DFA8139230220F435816E9F002434066D8426066DA4271E4A
:20F4C00020106DA42712A6808A20A1A02D042E0820E68601810220098602810120034F8104
:20F4E0000035866E9F002634058EFE40108E0100A68081412D04815A2E00A7A026F286FF74
:20F50000A7A48E0100A680272381FF271F8127270C81222708812026EC6F1F20E8A180279D
:20F52000E46D8426F8BDF36486FF200E860ABDF33A108EF0868E01008D0235856E9F002876
:20F5400034651F134F1F31BDF4B2270E4CE6A0C1FF27055D26F720ED86FF35E56E9F002A8E
:20F560003407EC84EDA4EC02ED2235876E9F002C34017FFF607FFF61FDFF6235816E9F004A
:20F580002E34017FFF6A7FFF6BFDFF6C35816E9F003034017FFF747FFF75FDFF7635816E2C
:20F5A0009F003234017FFF647FFF65FDFF6635816E9F003434017FFF6E7FFF6FFDFF703578
:20F5C000816E9F003634017FFF787FFF79FDFF7A35816E9F00383401FCFF6235816E9F007F
:20F5E0003A3401FCFF6C35816E9F003C3401FCFF7635816E9F003E3401FCFF6635816E9F36
:20F6000000403401FCFF7035816E9F00423401FCFF7A35816E9F004434417FFF647FFF651A
:20F620007FFF66B7FF677FFF6E7FFF6F7FFF70F7FF711F30F7FF7CFCFF7A35C16E9F00461C
:20F6400034118EFF5E8D1C35916E9F004834118EFF688D0F35916E9F004A34118EFF728DF2
:20F6600002359134036F84A601BDF33A26F935836E9F004C34118EFF5E8D1C35916E9F002B
:20F680004E34118EFF5E8D0F35916E9F005034118EFF728D02359134036F84A601812E27ED
:20F6A00006BDF33A4D26F435836E9F00523431108EFF5E8D1E35B16E9F00543431108EFF88
:20F6C000688D1035B16E9F00563431108EFF728D0235B134316FA0A6802704A7A420F83596
:20F6E000B16E9F00583415E684C1242708BDF6A9B6FF6720123001E6808D0E5858585834BD
:20F7000004E6808D04AAE035953404C0302B0CC1092304CA20C027C10F2302C6FFE1E01FDF
:02F72000983916
:10FFF000F140F144F148F14CF150F154F158F15C09
:00000001FF
