:19000000F090F092F094F096F098F09AF09CF0A0000000000000000000AD
:20F00000526574726F2036383039204B65726E656C20524F4D2056302E310A00456D756CBC
:20F0200061746F7220636F6D70696C6564206F6E200A00556E6465722047504C20563320BC
:20F040004C697363656E73650A00436F707972696768742032303234204279204A61792090
:20F060004661726965730A0A0052656164790A006E9F00006E9F00026E9F00046E9F0006E3
:20F080006E9F00086E9F000A6E9F000C6E9F000E20FE20FE20FE20FE20FE20FE20FE20FE20
:20F0A0008E00106F808C040026F910CE0400860CB7FE14860EB7FE0086B4B70012CC20B4EB
:20F0C000BDF1338EF000BDF1828EF01CBDF1828EF033BDF1828EF04ABDF1828EF069BDF169
:20F0E00082FC0010FD00138601B7FE3EFC0013FD0010CEFE40F6FE3DF70015F600127D000E
:20F1000015270C7A0015A6C02705BDF14120EF8620C64B6DC42702A6C0BDF141F60012A674
:20F12000C02705BDF14120F78620C6B4BDF14120BB20FE34108E0400ED81BCFE022DF9357A
:20F140009034165D2603F600124D271C810A2605BDF16A2013BDF198ED847C0010B60010AD
:20F16000B1FE052D03BDF16A359634167F00107C0011B60011B1FE072D067A0011BDF1AFCA
:20F18000359634561F13BDF198A6C027092B07BDF141300120F335D63406B60011F6FE05A2
:20F1A000583D8E0400308BF60010583085358634568E04001F13F6FE055833C5ECC1ED81ED
:11F1C00011B3FE022DF68620A781BCFE022DF935D69C
:10FFF000F070F074F078F07CF080F084F088F08C91
:00000001FF
