:19000000F090F092F094F096F098F09AF09CF0A0000000000000000000AD
:20F00000526574726F2036383039204B65726E656C20524F4D2056302E310A00456D756CBC
:20F0200061746F7220636F6D70696C6564206F6E200A00556E6465722047504C20563320BC
:20F040004C697363656E73650A00436F707972696768742032303234204279204A61792090
:20F060004661726965730A0A0052656164790A006E9F00006E9F00026E9F00046E9F0006E3
:20F080006E9F00086E9F000A6E9F000C6E9F000E20FE20FE20FE20FE20FE20FE20FE20FE20
:20F0A0008E00106F808C040026F910CE0400860CB7FE14860EB7FE0086B4B70012CC20B4EB
:20F0C000BDF0FE7FFE3D8EFE406F808CFF402DF98EF000BDF14D8EF01CBDF14D8EF033BDA3
:20F0E000F14D8EF04ABDF14D8EF069BDF14DBDF1A47FFE3D7FFE40BDF13520EC20FE341013
:20F100008E0400ED81BCFE022DF9359034165D2603F600124D271C810A2605BDF135201314
:20F12000BDF163ED847C0010B60010B1FE052D03BDF135359634167F00107C0011B600113C
:20F14000B1FE072D067A0011BDF17A359634561F13BDF163A6C027092B07BDF10C300120A8
:20F16000F335D63406B60011F6FE05583D8E0400308BF60010583085358634568E04001FAC
:20F1800013F6FE055833C5ECC1ED8111B3FE022DF68620A781BCFE022DF97DFE3E27037A04
:20F1A000001435D63457FC0010FD00138601B7FE3EFC0013FD0010CEFE40F6FE3DF70015AA
:20F1C000F600127D0015270C7A0015A6C02705BDF10C20EF8620F6FE1754545454C40F6D37
:20F1E000C42702A6C0BDF163ED847C0010F60012A6C02705BDF10C20F78620F60012BDF1E7
:20F20000638620F60012ED84B6FE2C27A4810D26A07FFE3EBDF1638620F60012ED1EFC00EC
:0FF2200013FD0010F600128EFE40BDF14D35D7E4
:10FFF000F070F074F078F07CF080F084F088F08C91
:00000001FF
