:20000000F08CF08DF08FF091F093F095F097F09BF116F128F155F171F18BF1A6F1D5F264D6
:0D002000F279F29D000000000000000000D9
:20F00000526574726F2036383039204B65726E656C20524F4D2056302E310A00456D756CBC
:20F0200061746F7220636F6D70696C65642000556E6465722047504C205633204C69736338
:20F04000656E73650A00436F707972696768742032303234204279204A6179204661726999
:20F0600065730A0A0052656164790A006E9F00006E9F00026E9F00046E9F00066E9F000850
:20F080006E9F000A6E9F000C6E9F000E3920FE20FE20FE20FE20FE20FE20FE8E02006F809B
:20F0A0008C040026F910CE0400860CB7FE14860EB7FE0086B4B70026CC20B4BDF1127FFE27
:20F0C0003D8EFE406F808CFF402DF98EF000BDF16D8EF01CBDF16D8602B7FF53B6FF5E272E
:20F0E00005BDF12420F6860ABDF1248EF02FBDF16D8EF046BDF16D8EF065BDF16DBDF1D19D
:20F10000BDF1517FFE3D7DFE4027F27FFE4020E720FE6E9F001034108E0400ED81BCFE0263
:20F120002DF935906E9F001234165D2603F600264D271C810A2605BDF1512013BDF187ED3F
:20F14000847C0024B60024B1FE052D03BDF15135966E9F001434167F00247C0025B6002579
:20F16000B1FE072D067A0025BDF1A235966E9F001634561F13BDF187A6C027092B07BDF162
:20F1800024300120F335D66E9F00183406B60025F6FE05583D8E0400308BF60024583085C0
:20F1A00035866E9F001A34568E04001F13F6FE05584F33CBECC1ED8111B3FE022DF68620D9
:20F1C000A781BCFE022DF97DFE3E27037A002835D66E9F001C3457FC0024FD00278601B75F
:20F1E000FE3EFC0027FD0024CEFE40F6FE3DF70029F600267D0029270C7A0029A6C0270508
:20F20000BDF12420EF8620F6FE1754545454C40F6DC42702A6C0BDF187ED847C0024F6003D
:20F2200026A6C02705BDF12420F78620F60026BDF1878620F60026ED84B6FE2C27A4810DCA
:20F2400026A07FFE3EBDF1878620F60026ED1EFC0027FD0024F600268EFE40BDF16D35D7D8
:20F260006E9F001E3405F6FE2C26FBF6FE2A27FBB6FE2C35856E9F002034018DE381302D5F
:20F28000FA8139231281412DF28146230A81612DEA8166230220E435816E9F002234018D00
:20F2A000BF81302DFA8139230220F4358134366D8426066DA4271C200E6DA42710A680A1F6
:18F2C000A02D042E0820E88601810220098602810120034F810035B60C
:10FFF000F06CF070F074F078F07CF080F084F088B1
:00000001FF
