:20000000F0F3F0F4F0F6F0F8F0FAF0FCF0FEF102F2A9F2C1F2EBF307F321F33DF36CF3ECED
:0D002000F401F425000000000000000000C5
:20F00000526574726F2036383039204B65726E656C20524F4D2056302E330A00456D756CBA
:20F0200061746F7220636F6D70696C65642000556E6465722047504C205633204C69736338
:20F04000656E73650A00436F707972696768742032303234204279204A6179204661726999
:20F0600065730A0A0052656164790A00636C7300636F6C6F72006C6F6164006578656300FF
:20F0800072657365740064697200636400636864697200657869740071756974006D6F6480
:20F0A0006500FFF1A9F1C5F21CF257F25CF262F274F274F28EF28FF2954552524F523A206B
:20F0C000436F6D6D616E64204E6F7420466F756E640A006E9F00006E9F00026E9F00046E5F
:20F0E0009F00066E9F00086E9F000A6E9F000C6E9F000E3920FE20FE20FE20FE20FE20FE1E
:20F1000020FE8E02006F808C040026F910CE0400CCF0F3FD0000860CB7FE148600B7FE007F
:20F1200086B4B70026CC20B4BDF2A57FFE3D8EFE406F808CFF402DF98EF000BDF3038EF0AF
:20F140001CBDF3038602B7FF53B6FF5E2705BDF2BD20F6860ABDF2BD8EF02FBDF3038EF0B4
:20F1600046BDF303F600268EF065BDF30386FFB7FE3F7FFE3D7FFE408EFE406F808CFF406E
:20F180002DF9BDF368BDF4627D0100270D81FF2710483001108EF0A3ADB67DFE4027E320C3
:20F1A000C38EF0B9BDF30320F16D84270FA68481FF2709BDF5FC4D2703B700268620F600F2
:20F1C00026BDF2A5396D84270DBDF5FC4D270781FF2703B70026394552524F523A204669DB
:20F1E0006C65204E6F7420466F756E640A004552524F523A2046696C65204E6F74204F7033
:20F20000656E0A004552524F523A2057726F6E672046696C6520547970650A00BDF24C8633
:20F2200009B7FF53B6FF528101271A8102270E8105270220168EF204BDF303200E8EF1EE83
:20F24000BDF30320068EF1D7BDF303397FFF5DA680B7FF5E26F939AD9F0000398600B7FF65
:20F2600053398DE8860BB7FF53B6FF5F2705BDF2BD20F6398DD6860DB7FF53860EB7FF535C
:20F280007FFF5DB6FF5E2705BDF2BD20F639128601B7FF53396D84270BBDF5FCB7FE0086B2
:20F2A00020BDF2A5396E9F001034108E0400ED81BCFE022DF97F00247F002535906E9F0045
:20F2C000123417F600264D271C810A2605BDF2E72013BDF31DED847C0024B60024B1FE053A
:20F2E0002D03BDF2E735976E9F001434167F00247C0025B60025B1FE072D067A0025BDF3BA
:20F300003935966E9F001634561F13BDF31DA6C027092B07BDF2BD300120F335D66E9F00AD
:20F32000183406B60025F6FE05583D8E0400308BF60024584F308B35866E9F001A34568E4F
:20F3400004001F13F6FE05584F33CBECC1ED8111B3FE022DF68620A781BCFE022DF97DFEAC
:20F360003E27037A002835D66E9F001C3457FC0024FD00278601B7FE3EFC0027FD0024CEF4
:20F38000FE40F6FE3DF700297D0029270C7A0029A6C02705BDF2BD20EF8620F6FE175454FC
:20F3A0005454C40F6DC42702A6C0BDF31DED847C0024A6C02705BDF2BD20F78620BDF31DAC
:20F3C0008620F60026ED84B6FE2C27AD810D26A97FFE3EBDF31D8620ED1EFC0027FD00246C
:20F3E0008EFE40BDF30335D76E9F001E3405F6FE2C26FBF6FE2A27FBB6FE2C35856E9F00F6
:20F400002034018DE381302DFA8139231281412DF28146230A81612DEA8166230220E4354D
:20F42000816E9F002234018DBF81302DFA8139230220F4358134066D8426066DA4271E204D
:20F44000106DA42712A6808A20A1A02D042E0820E68601810220098602810120034F8100A4
:20F46000358634058EFE40108E0100A68081412D04815A2E00A7A026F286FFA7A48E01004D
:20F48000A680272381FF271F8127270C81222708812026EC6F1F20E8A18027E46D8426F805
:20F4A000BDF2E786FF200E860ABDF2BD108EF06C8E01008D02358534651F134F1F31BDF41A
:20F4C00035270E4CE6A0C1FF27055D26F720ED86FF35E53407EC84EDA4EC02ED22358734B5
:20F4E000017FFF627FFF63FDFF64358134017FFF6C7FFF6DFDFF6E358134017FFF767FFF63
:20F5000077FDFF78358134017FFF667FFF67FDFF68358134017FFF707FFF71FDFF723581FC
:20F5200034017FFF7A7FFF7BFDFF7C35813401FCFF6435813401FCFF6E35813401FCFF7831
:20F5400035813401FCFF6835813401FCFF7235813401FCFF7C358134417FFF667FFF677F30
:20F56000FF68B7FF697FFF707FFF717FFF72F7FF731F30F7FF7EFCFF7C35C134118EFF606D
:20F580008D14359134118EFF6A8D0B359134118EFF748D02359134036F84A601BDF2BD266C
:20F5A000F9358334118EFF608D14359134118EFF608D0B359134118EFF748D02359134039F
:20F5C0006F84A601812E2706BDF2BD4D26F435833431108EFF608D1635B13431108EFF6AD3
:20F5E0008D0C35B13431108EFF748D0235B134316FA0A6802704A7A420F835B13415E684E0
:20F60000C1242708BDF5D0B6FF6920123001E6808D0E585858583404E6808D04AAE03595EF
:19F620003404C0302B0CC1092304CA20C027C10F2302C6FFE1E01F983945
:10FFF000F0D3F0D7F0DBF0DFF0E3F0E7F0EBF0EF79
:00000001FF
