:20000000F0F3F0F4F0F6F0F8F0FAF0FCF0FEF102F21EF236F263F27FF299F2B4F2E3F3722B
:0D002000F387F3AB000000000000000000BB
:20F00000526574726F2036383039204B65726E656C20524F4D2056302E320A00456D756CBB
:20F0200061746F7220636F6D70696C65642000556E6465722047504C205633204C69736338
:20F04000656E73650A00436F707972696768742032303234204279204A6179204661726999
:20F0600065730A0A0052656164790A00636C7300636F6C6F72006C6F6164006578656300FF
:20F0800072657365740064697200636400636864697200657869740071756974006D6F6480
:20F0A0006500FFF1DEF1E7F1ECF1F1F1F6F1FCF201F206F20BF20BF2114552524F523A20E6
:20F0C000436F6D6D616E64204E6F7420466F756E640A006E9F00006E9F00026E9F00046E5F
:20F0E0009F00066E9F00086E9F000A6E9F000C6E9F000E3920FE20FE20FE20FE20FE20FE1E
:20F1000020FE8E02006F808C040026F910CE0400860CB7FE148603B7FE0086B4B70026CC45
:20F1200020B4BDF21A7FFE3D8EFE406F808CFF402DF98EF000BDF27B8EF01CBDF27B8602D8
:20F14000B7FF53B6FF5E2705BDF23220F6860ABDF2328EF02FBDF27B8EF046BDF27B8EF0BC
:20F1600065BDF27B86FFB7FE3F7FFE3D7FFE408EFE406F808CFF402DF9BDF2DFBDF3E67DC3
:20F180000100270A81FF270D488EF0A3AD967DFE4027E620C98EF0B9BDF27B20F1434C53D8
:20F1A0000A00434F4C4F520A004C4F41440A00455845430A0052455345540A004449520AED
:20F1C0000043440A0043484449520A00455849540A00515549540A004D4F44450A008620C4
:20F1E000F60026BDF21A398EF1A2202A8EF1A920258EF1AF20208600B7FF53398EF1BC2088
:20F20000158EF1C120108EF1C5200B8601B7FF53398EF1D82000BDF27B396E9F00103410F6
:20F220008E0400ED81BCFE022DF97F00247F002535906E9F001234165D2603F600264D2761
:20F240001C810A2605BDF25F2013BDF295ED847C0024B60024B1FE052D03BDF25F35966E41
:20F260009F001434167F00247C0025B60025B1FE072D067A0025BDF2B035966E9F00163469
:20F28000561F13BDF295A6C027092B07BDF232300120F335D66E9F00183406B60025F6FE7C
:20F2A00005583D8E0400308BF6002458308535866E9F001A34568E04001F13F6FE05584F70
:20F2C00033CBECC1ED8111B3FE022DF68620A781BCFE022DF97DFE3E27037A002835D66E80
:20F2E0009F001C3457FC0024FD00278601B7FE3EFC0027FD0024CEFE40F6FE3DF70029F673
:20F3000000267D0029270C7A0029A6C02705BDF23220EF8620F6FE1754545454C40F6DC4C4
:20F320002702A6C0BDF295ED847C0024F60026A6C02705BDF23220F78620F60026BDF2953D
:20F340008620F60026ED84B6FE2C27A4810D26A07FFE3EBDF2958620F60026ED1EFC00278C
:20F36000FD0024F600268EFE40BDF27B35D76E9F001E3405F6FE2C26FBF6FE2A27FBB6FEB5
:20F380002C35856E9F002034018DE381302DFA8139231281412DF28146230A81612DEA819F
:20F3A00066230220E435816E9F002234018DBF81302DFA8139230220F4358134066D842686
:20F3C000066DA4271C200E6DA42710A680A1A02D042E0820E886018102200986028101202A
:20F3E000034F8100358634058EFE40108E0100A68081412D06815A2E028A20A7A026F08628
:20F40000FFA7A48E0100A68081FF271A8127270C81222708812026EE6F1F20EAA18027E604
:20F4200081FF271020F6860ABDF232108EF06C8E01008D02358534651F134F1F31BDF3BBE7
:12F44000270E4CE6A0C1FF27055D26F720ED86FF35E5A1
:10FFF000F0D3F0D7F0DBF0DFF0E3F0E7F0EBF0EF79
:00000001FF
