:13000000F090F092F094F096F098F09AF09CF0A0000000B3
:20F00000526574726F2036383039204B65726E656C20524F4D2056302E310A00456D756CBC
:20F0200061746F7220636F6D70696C6564206F6E200A00556E6465722047504C20563320BC
:20F040004C697363656E73650A00436F707972696768742032303234204279204A61792090
:20F060004661726965730A0A0052656164790A006E9F00006E9F00026E9F00046E9F0006E3
:20F080006E9F00086E9F000A6E9F000C6E9F000E20FE20FE20FE20FE20FE20FE20FE20FE20
:20F0A0008E00106F808C040026F910CE0400860CB7FE14860EB7FE0086B4B70012CC20B4EB
:20F0C000BDF0E38EF000BDF1328EF01CBDF1328EF033BDF1328EF04ABDF1328EF069BDF1FA
:20F0E0003220FE34108E0400ED81BCFE022DF9359034165D2603F600124D271C810A2605B7
:20F10000BDF11A2013BDF148ED847C0010B60010B1FE052D03BDF11A359634167F00107C6F
:20F120000011B60011B1FE072D067A0011BDF15F359634561F13BDF148A6C027092B07BD74
:20F14000F0F1300120F335D63406B60011F6FE05583D8E0400308BF60010583085358634A1
:20F16000568E04001F13F6FE055833C5ECC1ED8111B3FE022DF68620A781BCFE022DF93545
:01F18000D6B8
:10FFF000F070F074F078F07CF080F084F088F08C91
:00000001FF
