:20000000F0F3F0F4F0F6F0F8F0FAF0FCF0FEF102F264F27CF2A6F2C2F2DCF2F7F326F3A61B
:0D002000F3BBF3DF00000000000000000053
:20F00000526574726F2036383039204B65726E656C20524F4D2056302E330A00456D756CBA
:20F0200061746F7220636F6D70696C65642000556E6465722047504C205633204C69736338
:20F04000656E73650A00436F707972696768742032303234204279204A6179204661726999
:20F0600065730A0A0052656164790A00636C7300636F6C6F72006C6F6164006578656300FF
:20F0800072657365740064697200636400636864697200657869740071756974006D6F6480
:20F0A0006500FFF1E4F200F212F217F21CF222F23CF241F246F246F24C4552524F523A2003
:20F0C000436F6D6D616E64204E6F7420466F756E640A006E9F00006E9F00026E9F00046E5F
:20F0E0009F00066E9F00086E9F000A6E9F000C6E9F000E3920FE20FE20FE20FE20FE20FE1E
:20F1000020FE8E02006F808C040026F910CE0400860CB7FE148600B7FE0086B4B70026CC48
:20F1200020B4BDF2607FFE3D8EFE406F808CFF402DF98EF000BDF2BE8EF01CBDF2BE86020C
:20F14000B7FF53B6FF5E2705BDF27820F6860ABDF2788EF02FBDF2BE8EF046BDF2BEF60032
:20F16000268EF065BDF2BE86FFB7FE3F7FFE3D7FFE408EFE406F808CFF402DF9BDF322BDEE
:20F18000F41C7D0100270D81FF2710483001108EF0A3ADB67DFE4027E320C38EF0B9BDF25B
:20F1A000BE20F1434C530A00434F4C4F520A004C4F41440A00455845430A0052455345542F
:20F1C0000A004449520A0043440A0043484449520A00455849540A00515549540A004D4F0A
:20F1E00044450A006D84270FA68481FF2709BDF5824D2703B700268620F60026BDF26039E9
:20F200006D84270DBDF5824D270781FF2703B70026398EF1AF20458EF1B520408600B7FFF7
:20F2200053397FFF5DA680B7FF5E26F9860BB7FF53B6FF5F2705BDF27820F6398EF1C72058
:20F240001B8EF1CB20168601B7FF53396D84270BBDF582B7FE008620BDF26039BDF2BE39AA
:20F260006E9F001034108E0400ED81BCFE022DF97F00247F002535906E9F00123417F600DF
:20F28000264D271C810A2605BDF2A22013BDF2D8ED847C0024B60024B1FE052D03BDF2A2D7
:20F2A00035976E9F001434167F00247C0025B60025B1FE072D067A0025BDF2F335966E9FF6
:20F2C000001634561F13BDF2D8A6C027092B07BDF278300120F335D66E9F00183406B60082
:20F2E00025F6FE05583D8E0400308BF6002458308535866E9F001A34568E04001F13F6FEC3
:20F3000005584F33CBECC1ED8111B3FE022DF68620A781BCFE022DF97DFE3E27037A00280C
:20F3200035D66E9F001C3457FC0024FD00278601B7FE3EFC0027FD0024CEFE40F6FE3DF7D8
:20F3400000297D0029270C7A0029A6C02705BDF27820EF8620F6FE1754545454C40F6DC43B
:20F360002702A6C0BDF2D8ED847C0024A6C02705BDF27820F78620BDF2D88620F60026EDBA
:20F3800084B6FE2C27AD810D26A97FFE3EBDF2D88620ED1EFC0027FD00248EFE40BDF2BE68
:20F3A00035D76E9F001E3405F6FE2C26FBF6FE2A27FBB6FE2C35856E9F002034018DE3816F
:20F3C000302DFA8139231281412DF28146230A81612DEA8166230220E435816E9F002234F0
:20F3E000018DBF81302DFA8139230220F4358134066D8426066DA4271E20106DA42712A672
:20F40000808A20A1A02D042E0820E68601810220098602810120034F8100358634058EFE64
:20F4200040108E0100A68081412D04815A2E00A7A026F286FFA7A48E0100A68081FF271A26
:20F440008127270C81222708812026EE6F1F20EAA18027E681FF271020F6860ABDF27810F0
:20F460008EF06C8E01008D02358534651F134F1F31BDF3EF270E4CE6A0C1FF27055D26F754
:20F4800020ED86FF35E53407EC84EDA4EC02ED22358734017FFF627FFF63FDFF643581348B
:20F4A000017FFF6C7FFF6DFDFF6E358134017FFF767FFF77FDFF78358134017FFF667FFF77
:20F4C00067FDFF68358134017FFF707FFF71FDFF72358134017FFF7A7FFF7BFDFF7C358121
:20F4E0003401FCFF6435813401FCFF6E35813401FCFF7835813401FCFF6835813401FCFF92
:20F500007235813401FCFF7C358134417FFF667FFF677FFF68B7FF697FFF707FFF717FFFC3
:20F5200072F7FF731F30F7FF7EFCFF7C35C134118EFF608D14359134118EFF6A8D0B35918D
:20F5400034118EFF748D02359134036F84A601BDF27826F935833431108EFF608D1635B156
:20F560003431108EFF6A8D0C35B13431108EFF748D0235B134316FA0A6802704A7A420F88D
:20F5800035B13415E684C1242708BDF556B6FF6920123001E6808D0E585858583404E68036
:1FF5A0008D04AAE035953404C0302B0CC1092304CA20C027C10F2302C6FFE1E01F9839DB
:10FFF000F0D3F0D7F0DBF0DFF0E3F0E7F0EBF0EF79
:00000001FF
