:20000000F0F3F0F4F0F6F0F8F0FAF0FCF0FEF102F250F268F292F2AEF2C8F2E3F312F392BB
:0D002000F3A7F3CB0000000000000000007B
:20F00000526574726F2036383039204B65726E656C20524F4D2056302E330A00456D756CBA
:20F0200061746F7220636F6D70696C65642000556E6465722047504C205633204C69736338
:20F04000656E73650A00436F707972696768742032303234204279204A6179204661726999
:20F0600065730A0A0052656164790A00636C7300636F6C6F72006C6F6164006578656300FF
:20F0800072657365740064697200636400636864697200657869740071756974006D6F6480
:20F0A0006500FFF210F219F21EF223F228F22EF233F238F23DF23DF2434552524F523A20BA
:20F0C000436F6D6D616E64204E6F7420466F756E640A006E9F00006E9F00026E9F00046E5F
:20F0E0009F00066E9F00086E9F000A6E9F000C6E9F000E3920FE20FE20FE20FE20FE20FE1E
:20F1000020FE8E02006F808C040026F910CE0400860CB7FE148603B7FE0086B4B70026CC45
:20F1200020B4BDF24C7FFE3D8EFE406F808CFF402DF98EF000BDF2AA8EF01CBDF2AA860248
:20F14000B7FF53B6FF5E2705BDF26420F6860ABDF2648EF02FBDF2AA8EF046BDF2AA200A4E
:20F16000313830303000313030008EF160BDF5068EF166BDF510861DB7FF7EBDF4DEBDF2B2
:20F180008EBDF4E7BDF28EBDF4F0BDF28EF600268EF065BDF2AA86FFB7FE3F7FFE3D7FFE26
:20F1A000408EFE406F808CFF402DF9BDF30EBDF4067D0100270A81FF270D488EF0A3AD96DF
:20F1C0007DFE4027E620C68EF0B9BDF2AA20F1434C530A00434F4C4F520A004C4F41440A41
:20F1E00000455845430A0052455345540A004449520A0043440A0043484449520A004558C8
:20F2000049540A00515549540A004D4F44450A008620F60026BDF24C398EF1D4202A8EF1B9
:20F22000DB20258EF1E120208600B7FF53398EF1EE20158EF1F320108EF1F7200B8601B723
:20F24000FF53398EF20A2000BDF2AA396E9F001034108E0400ED81BCFE022DF97F00247F82
:20F26000002535906E9F00123417F600264D271C810A2605BDF28E2013BDF2C4ED847C0008
:20F2800024B60024B1FE052D03BDF28E35976E9F001434167F00247C0025B60025B1FE0743
:20F2A0002D067A0025BDF2DF35966E9F001634561F13BDF2C4A6C027092B07BDF2643001C5
:20F2C00020F335D66E9F00183406B60025F6FE05583D8E0400308BF6002458308535866EAB
:20F2E0009F001A34568E04001F13F6FE05584F33CBECC1ED8111B3FE022DF68620A781BCDD
:20F30000FE022DF97DFE3E27037A002835D66E9F001C3457FC0024FD00278601B7FE3EFCC9
:20F320000027FD0024CEFE40F6FE3DF700297D0029270C7A0029A6C02705BDF26420EF8672
:20F3400020F6FE1754545454C40F6DC42702A6C0BDF2C4ED847C0024A6C02705BDF2642056
:20F36000F78620BDF2C48620F60026ED84B6FE2C27AD810D26A97FFE3EBDF2C48620ED1E5A
:20F38000FC0027FD00248EFE40BDF2AA35D76E9F001E3405F6FE2C26FBF6FE2A27FBB6FE5F
:20F3A0002C35856E9F002034018DE381302DFA8139231281412DF28146230A81612DEA817F
:20F3C00066230220E435816E9F002234018DBF81302DFA8139230220F4358134066D842666
:20F3E000066DA4271C200E6DA42710A680A1A02D042E0820E886018102200986028101200A
:20F40000034F8100358634058EFE40108E0100A68081412D06815A2E028A20A7A026F08607
:20F42000FFA7A48E0100A68081FF271A8127270C81222708812026EE6F1F20EAA18027E6E4
:20F4400081FF271020F6860ABDF264108EF06C8E01008D02358534651F134F1F31BDF3DB75
:20F46000270E4CE6A0C1FF27055D26F720ED86FF35E53407EC84EDA4EC02ED223587340149
:20F480007FFF667FFF67FDFF68358134017FFF707FFF71FDFF72358134017FFF7A7FFF7B2D
:20F4A000FDFF7C35813401FCFF6835813401FCFF7235813401FCFF7C358134417FFF667F3E
:20F4C000FF677FFF68B7FF697FFF707FFF717FFF72F7FF731F30F7FF7EFCFF7C35C1341116
:20F4E0008EFF608D14359134118EFF6A8D0B359134118EFF748D02359134036F84A601BDF5
:20F50000F26426F935833431108EFF608D1635B13431108EFF6A8D0C35B13431108EFF7472
:12F520008D0235B134316FA0A6802704A7A420F835B156
:10FFF000F0D3F0D7F0DBF0DFF0E3F0E7F0EBF0EF79
:00000001FF
