:10000000F202F203F205F207F209F20BF20DF2111D
:20F00000526574726F2036383039204B65726E656C20524F4D2056302E340A00456D756CB9
:20F0200061746F7220636F6D70696C65642000556E6465722047656E6572616C205075626A
:20F040006C6963204C697363656E7365202847504C205633290A00436F7079726967687462
:20F060002028432920323032342D32303235204279204A6179204661726965730A0A0052FF
:20F08000656164790A00636C7300636F6C6F72006C6F6164006578656300726573657400FA
:20F0A00064697200636400636864697200657869740071756974006D6F646500646562757E
:20F0C000670068656C7000FFF2CDF2E9F340F37BF380F386F398F398F3B2F3B3F3B9F3DE1C
:20F0E000F40F4552524F523A20436F6D6D616E64204E6F7420466F756E640A002076616C90
:20F10000696420636F6D6D616E6473206172653A0A2020636C732C202020636F6C6F722CBB
:20F12000206C6F61642C0A2020657865632C202072657365742C206469722C2063642C0A91
:20F14000202063686469722C20657869742C2020717569742C0A20206D6F64652C20206445
:20F16000656275672C20657869742C0A2020717569742C20206D6F64652C20206465627590
:20F18000672C0A2020616E642068656C700A00F41AF432F45CF478F492F4AEF4DDF55DF55C
:20F1A00072F596F5AAF5DBF634F654F664F675F686F697F6A8F6B9F6CAF6D5F6E0F6EBF61C
:20F1C000F6F701F70CF734F741F74EF768F775F782F7A1F7AFF7BDF7D90000000000000090
:20F1E00000006E9F00006E9F00026E9F00046E9F00066E9F00086E9F000A6E9F000C6E9F7D
:20F20000000E3920FE20FE20FE20FE20FE20FE20FE8EF18F108E0010A680A7A08CF1E22D20
:20F22000F78E02006F808C040026F910CE0400CCF202FD0000860CB7FE148603B7FE0086EB
:20F2400040B7FF8286B4B7005CCC20B4BDF4167FFE3D8EFE406F808CFF402DF98EF000BDE1
:20F26000F4748EF01CBDF4748602B7FF53B6FF5C2705BDF42E20F6860ABDF42E8EF02FBDCB
:20F28000F4748EF057BDF474F6005C8EF07FBDF47486FFB7FE3F7FFE3D7FFE408EFE406F6D
:20F2A000808CFF402DF9BDF4D9BDF5D77D0100270D81FF2710483001108EF0C8ADB67DFEB4
:20F2C0004027E320C38EF0E2BDF47420F16D84270FA68481FF2709BDF7D54D2703B7005C57
:20F2E0008620F6005CBDF416396D84270DBDF7D54D270781FF2703B7005C394552524F526D
:20F300003A2046696C65204E6F7420466F756E640A004552524F523A2046696C65204E6F5B
:20F3200074204F70656E0A004552524F523A2057726F6E672046696C6520547970650A0040
:20F34000BDF370860AB7FF53B6FF528101271A8102270E8105270220168EF328BDF474209F
:20F360000E8EF312BDF47420068EF2FBBDF474397FFF5BA680B7FF5C26F939AD9F000039DA
:20F380008600B7FF53398DE8860CB7FF53B6FF5D2705BDF42E20F6398DD6860EB7FF5386A3
:20F3A0000FB7FF537FFF5BB6FF5C2705BDF42E20F639128601B7FF53396D84270BBDF7D56A
:20F3C000B7FE008620BDF416392000656E61626C65640A0064697361626C65640A00B6FEE7
:20F3E0001C84802715B6FE1C847FB7FE1C8EF3C9BDF4748EF3D4BDF47439B6FE1C8A80B75A
:20F40000FE1C8EF3C9BDF4748EF3CBBDF474398EF0FCBDF474396E9F001034108E0400ED01
:20F4200081BCFE022DF97F005A7F005B35906E9F00123417F6005C4D271C810A2605BDF43E
:20F44000582013BDF48EED847C005AB6005AB1FE052D03BDF45835976E9F001434167F00E8
:20F460005A7C005BB6005BB1FE072D067A005BBDF4AA35966E9F001634561F13BDF48EA6A2
:20F48000C027092B07BDF42E300120F335D66E9F00183406B6005BF6FE05583D8E0400305C
:20F4A0008BF6005A584F308B35866E9F001A34568E04001F13F6FE05584F33CBECC1ED8126
:20F4C00011B3FE022DF68620A781BCFE022DF97DFE3E27037A005E35D66E9F001C3457FC1F
:20F4E000005AFD005D8601B7FE3EFC005DFD005ACEFE40F6FE3DF7005F7D005F270C7A0012
:20F500005FA6C02705BDF42E20EF8620F6FE1754545454C40F6DC42702A6C0BDF48EED84C8
:20F520007C005AA6C02705BDF42E20F78620BDF48E8620F6005CED84B6FE2C27AD810D26B7
:20F54000A97FFE3EBDF48E8620ED1EFC005DFD005A8EFE40BDF47435D76E9F001E3405F650
:20F56000FE2C26FBF6FE2A27FBB6FE2C35856E9F002034018DE381302DFA8139231281410B
:20F580002DF28146230A81612DEA8166230220E435816E9F002234018DBF81302DFA813957
:20F5A000230220F435816E9F002434066D8426066DA4271E20106DA42712A6808A20A1A0F3
:20F5C0002D042E0820E68601810220098602810120034F810035866E9F002634058EFE409B
:20F5E000108E0100A68081412D04815A2E00A7A026F286FFA7A48E0100A680272381FF2775
:20F600001F8127270C81222708812026EC6F1F20E8A18027E46D8426F8BDF45886FF200EDE
:20F62000860ABDF42E108EF0868E01008D0235856E9F002834651F134F1F31BDF5A6270E43
:20F640004CE6A0C1FF27055D26F720ED86FF35E56E9F002A3407EC84EDA4EC02ED2235879A
:20F660006E9F002C34017FFF607FFF61FDFF6235816E9F002E34017FFF6A7FFF6BFDFF6CA2
:20F6800035816E9F003034017FFF747FFF75FDFF7635816E9F003234017FFF647FFF65FDFF
:20F6A000FF6635816E9F003434017FFF6E7FFF6FFDFF7035816E9F003634017FFF787FFFD2
:20F6C00079FDFF7A35816E9F00383401FCFF6235816E9F003A3401FCFF6C35816E9F003C16
:20F6E0003401FCFF7635816E9F003E3401FCFF6635816E9F00403401FCFF7035816E9F0067
:20F70000423401FCFF7A35816E9F004434417FFF647FFF657FFF66B7FF677FFF6E7FFF6FE2
:20F720007FFF70F7FF711F30F7FF7CFCFF7A35C16E9F004634118EFF5E8D1C35916E9F0049
:20F740004834118EFF688D0F35916E9F004A34118EFF728D02359134036F84A601BDF42E25
:20F7600026F935836E9F004C34118EFF5E8D1C35916E9F004E34118EFF5E8D0F35916E9FC0
:20F78000005034118EFF728D02359134036F84A601812E2706BDF42E4D26F435836E9F00C8
:20F7A000523431108EFF5E8D1E35B16E9F00543431108EFF688D1035B16E9F0056343110E0
:20F7C0008EFF728D0235B134316FA0A6802704A7A420F835B16E9F00583415E684C1242783
:20F7E00008BDF79DB6FF6720123001E6808D0E585858583404E6808D04AAE035953404C055
:16F80000302B0CC1092304CA20C027C10F2302C6FFE1E01F98395E
:10FFF000F1E2F1E6F1EAF1EEF1F2F1F6F1FAF1FEF9
:00000001FF
