:20000000F0F3F0F4F0F6F0F8F0FAF0FCF0FEF102F25CF274F29EF2BAF2D4F2EFF31EF39E5B
:16002000F3B3F3D7000000000000000000202D32332E33353600DC
:20F00000526574726F2036383039204B65726E656C20524F4D2056302E320A00456D756CBB
:20F0200061746F7220636F6D70696C65642000556E6465722047504C205633204C69736338
:20F04000656E73650A00436F707972696768742032303234204279204A6179204661726999
:20F0600065730A0A0052656164790A00636C7300636F6C6F72006C6F6164006578656300FF
:20F0800072657365740064697200636400636864697200657869740071756974006D6F6480
:20F0A0006500FFF21CF225F22AF22FF234F23AF23FF244F249F249F24F4552524F523A2036
:20F0C000436F6D6D616E64204E6F7420466F756E640A006E9F00006E9F00026E9F00046E5F
:20F0E0009F00066E9F00086E9F000A6E9F000C6E9F000E3920FE20FE20FE20FE20FE20FE1E
:20F1000020FE8E02006F808C040026F910CE0400860CB7FE148603B7FE0086B4B70026CC45
:20F1200020B4BDF2587FFE3D8EFE406F808CFF402DF98EF000BDF2B68EF01CBDF2B6860224
:20F14000B7FF53B6FF5E2705BDF27020F6860ABDF2708EF02FBDF2B68EF046BDF2B67FFFCA
:20F16000748E002DA680B7FF7526F9FCFF76FDFF62FCFF78FDFF64CC0000FDFF70CC03E85F
:20F18000FDFF72860FB7FF7E127FFF74B6FF75BDF27026F8860ABDF270F600268EF065BD62
:20F1A000F2B686FFB7FE3F7FFE3D7FFE408EFE406F808CFF402DF9BDF31ABDF4127D010000
:20F1C000270A81FF270D488EF0A3AD967DFE4027E620C68EF0B9BDF2B620F1434C530A0057
:20F1E000434F4C4F520A004C4F41440A00455845430A0052455345540A004449520A004374
:20F20000440A0043484449520A00455849540A00515549540A004D4F44450A008620F600D0
:20F2200026BDF258398EF1E0202A8EF1E720258EF1ED20208600B7FF53398EF1FA20158E64
:20F24000F1FF20108EF203200B8601B7FF53398EF2162000BDF2B6396E9F001034108E04D0
:20F2600000ED81BCFE022DF97F00247F002535906E9F00123417F600264D271C810A260566
:20F28000BDF29A2013BDF2D0ED847C0024B60024B1FE052D03BDF29A35976E9F0014341624
:20F2A0007F00247C0025B60025B1FE072D067A0025BDF2EB35966E9F001634561F13BDF2B4
:20F2C000D0A6C027092B07BDF270300120F335D66E9F00183406B60025F6FE05583D8E04CE
:20F2E00000308BF6002458308535866E9F001A34568E04001F13F6FE05584F33CBECC1EDC4
:20F300008111B3FE022DF68620A781BCFE022DF97DFE3E27037A002835D66E9F001C345791
:20F32000FC0024FD00278601B7FE3EFC0027FD0024CEFE40F6FE3DF700297D0029270C7A1B
:20F340000029A6C02705BDF27020EF8620F6FE1754545454C40F6DC42702A6C0BDF2D0EDC4
:20F36000847C0024A6C02705BDF27020F78620BDF2D08620F60026ED84B6FE2C27AD810D07
:20F3800026A97FFE3EBDF2D08620ED1EFC0027FD00248EFE40BDF2B635D76E9F001E3405CE
:20F3A000F6FE2C26FBF6FE2A27FBB6FE2C35856E9F002034018DE381302DFA813923128118
:20F3C000412DF28146230A81612DEA8166230220E435816E9F002234018DBF81302DFA8111
:20F3E00039230220F4358134066D8426066DA4271C200E6DA42710A680A1A02D042E0820D6
:20F40000E88601810220098602810120034F8100358634058EFE40108E0100A68081412D60
:20F4200006815A2E028A20A7A026F086FFA7A48E0100A68081FF271A8127270C81222708C1
:20F44000812026EE6F1F20EAA18027E681FF271020F6860ABDF270108EF06C8E01008D029D
:1EF46000358534651F134F1F31BDF3E7270E4CE6A0C1FF27055D26F720ED86FF35E5BA
:10FFF000F0D3F0D7F0DBF0DFF0E3F0E7F0EBF0EF79
:00000001FF
