:20000000F0F3F0F4F0F6F0F8F0FAF0FCF0FEF102F277F28FF2B9F2D5F2EFF30AF339F3B982
:0D002000F3CEF3F20000000000000000002D
:20F00000526574726F2036383039204B65726E656C20524F4D2056302E330A00456D756CBA
:20F0200061746F7220636F6D70696C65642000556E6465722047504C205633204C69736338
:20F04000656E73650A00436F707972696768742032303234204279204A6179204661726999
:20F0600065730A0A0052656164790A00636C7300636F6C6F72006C6F6164006578656300FF
:20F0800072657365740064697200636400636864697200657869740071756974006D6F6480
:20F0A0006500FFF1E4F200F212F217F21CF222F234F234F24EF24EF2544552524F523A2000
:20F0C000436F6D6D616E64204E6F7420466F756E640A006E9F00006E9F00026E9F00046E5F
:20F0E0009F00066E9F00086E9F000A6E9F000C6E9F000E3920FE20FE20FE20FE20FE20FE1E
:20F1000020FE8E02006F808C040026F910CE0400860CB7FE148600B7FE0086B4B70026CC48
:20F1200020B4BDF2737FFE3D8EFE406F808CFF402DF98EF000BDF2D18EF01CBDF2D18602D3
:20F14000B7FF53B6FF5E2705BDF28B20F6860ABDF28B8EF02FBDF2D18EF046BDF2D1F600E6
:20F16000268EF065BDF2D186FFB7FE3F7FFE3D7FFE408EFE406F808CFF402DF9BDF335BDC8
:20F18000F42F7D0100270D81FF2710483001108EF0A3ADB67DFE4027E320C38EF0B9BDF248
:20F1A000D120F1434C530A00434F4C4F520A004C4F41440A00455845430A0052455345541C
:20F1C0000A004449520A0043440A0043484449520A00455849540A00515549540A004D4F0A
:20F1E00044450A006D84270FA68481FF2709BDF5954D2703B700268620F60026BDF27339C3
:20F200006D84270DBDF5954D270781FF2703B70026398EF1AF204D8EF1B520488600B7FFD4
:20F2200053398D44860BB7FF53B6FF5F2705BDF28B20F6398D32860DB7FF53860EB7FF5316
:20F240007FFF5DB6FF5E2705BDF28B20F6398601B7FF53396D84270BBDF595B7FE0086207D
:20F26000BDF27339BDF2D1397FFF5DA680B7FF5E26F9396E9F001034108E0400ED81BCFEF2
:20F28000022DF97F00247F002535906E9F00123417F600264D271C810A2605BDF2B52013D7
:20F2A000BDF2EBED847C0024B60024B1FE052D03BDF2B535976E9F001434167F00247C002B
:20F2C00025B60025B1FE072D067A0025BDF30635966E9F001634561F13BDF2EBA6C0270916
:20F2E0002B07BDF28B300120F335D66E9F00183406B60025F6FE05583D8E0400308BF60048
:20F300002458308535866E9F001A34568E04001F13F6FE05584F33CBECC1ED8111B3FE020F
:20F320002DF68620A781BCFE022DF97DFE3E27037A002835D66E9F001C3457FC0024FD0099
:20F34000278601B7FE3EFC0027FD0024CEFE40F6FE3DF700297D0029270C7A0029A6C02762
:20F3600005BDF28B20EF8620F6FE1754545454C40F6DC42702A6C0BDF2EBED847C0024A65A
:20F38000C02705BDF28B20F78620BDF2EB8620F60026ED84B6FE2C27AD810D26A97FFE3EF1
:20F3A000BDF2EB8620ED1EFC0027FD00248EFE40BDF2D135D76E9F001E3405F6FE2C26FBC1
:20F3C000F6FE2A27FBB6FE2C35856E9F002034018DE381302DFA8139231281412DF2814612
:20F3E000230A81612DEA8166230220E435816E9F002234018DBF81302DFA8139230220F4A6
:20F40000358134066D8426066DA4271E20106DA42712A6808A20A1A02D042E0820E686010A
:20F42000810220098602810120034F8100358634058EFE40108E0100A68081412D04815AD0
:20F440002E00A7A026F286FFA7A48E0100A68081FF271A8127270C81222708812026EE6F08
:20F460001F20EAA18027E681FF271020F6860ABDF28B108EF06C8E01008D02358534651F14
:20F48000134F1F31BDF402270E4CE6A0C1FF27055D26F720ED86FF35E53407EC84EDA4ECC6
:20F4A00002ED22358734017FFF627FFF63FDFF64358134017FFF6C7FFF6DFDFF6E35813415
:20F4C000017FFF767FFF77FDFF78358134017FFF667FFF67FDFF68358134017FFF707FFF5F
:20F4E00071FDFF72358134017FFF7A7FFF7BFDFF7C35813401FCFF6435813401FCFF6E3506
:20F50000813401FCFF7835813401FCFF6835813401FCFF7235813401FCFF7C358134417F10
:20F52000FF667FFF677FFF68B7FF697FFF707FFF717FFF72F7FF731F30F7FF7EFCFF7C35D7
:20F54000C134118EFF608D14359134118EFF6A8D0B359134118EFF748D02359134036F84F2
:20F56000A601BDF28B26F935833431108EFF608D1635B13431108EFF6A8D0C35B134311088
:20F580008EFF748D0235B134316FA0A6802704A7A420F835B13415E684C1242708BDF56905
:20F5A000B6FF6920123001E6808D0E585858583404E6808D04AAE035953404C0302B0CC1C6
:12F5C000092304CA20C027C10F2302C6FFE1E01F9839CD
:10FFF000F0D3F0D7F0DBF0DFF0E3F0E7F0EBF0EF79
:00000001FF
