:19000000F090F092F094F096F098F09AF09CF0A0000000000000000000AD
:20F00000526574726F2036383039204B65726E656C20524F4D2056302E310A00456D756CBC
:20F0200061746F7220636F6D70696C6564206F6E200A00556E6465722047504C20563320BC
:20F040004C697363656E73650A00436F707972696768742032303234204279204A61792090
:20F060004661726965730A0A0052656164790A006E9F00006E9F00026E9F00046E9F0006E3
:20F080006E9F00086E9F000A6E9F000C6E9F000E20FE20FE20FE20FE20FE20FE20FE20FE20
:20F0A0008E00106F808C040026F910CE0400860CB7FE14860EB7FE0086B4B70012CC20B4EB
:20F0C000BDF1037FFE3D8EFE406F808CFF402DF98EF000BDF1528EF01CBDF1528EF033BD93
:20F0E000F1528EF04ABDF1528EF069BDF152BDF1AABDF13A7FFE3D7DFE4027F27FFE402073
:20F10000E720FE34108E0400ED81BCFE022DF9359034165D2603F600124D271C810A2605E1
:20F12000BDF13A2013BDF168ED847C0010B60010B1FE052D03BDF13A359634167F00107CEF
:20F140000011B60011B1FE072D067A0011BDF17F359634561F13BDF168A6C027092B07BD14
:20F16000F111300120F335D63406B60011F6FE05583D8E0400308BF6001058308535863460
:20F18000568E04001F13F6FE05584F33CBECC1ED8111B3FE022DF68620A781BCFE022DF905
:20F1A0007DFE3E27037A001435D63457FC0010FD00138601B7FE3EFC0013FD0010CEFE408A
:20F1C000F6FE3DF70015F600127D0015270C7A0015A6C02705BDF11120EF8620F6FE175431
:20F1E000545454C40F6DC42702A6C0BDF168ED847C0010F60012A6C02705BDF11120F78677
:20F2000020F60012BDF1688620F60012ED84B6FE2C27A4810D26A07FFE3EBDF1688620F625
:15F220000012ED1EFC0013FD0010F600128EFE40BDF15235D7C0
:10FFF000F070F074F078F07CF080F084F088F08C91
:00000001FF
