:20000000F08CF08DF08FF091F093F095F097F09BF15CF16EF19BF1B7F1D1F1ECF21BF2AAA5
:0D002000F2BFF2E30000000000000000004D
:20F00000526574726F2036383039204B65726E656C20524F4D2056302E310A00456D756CBC
:20F0200061746F7220636F6D70696C65642000556E6465722047504C205633204C69736338
:20F04000656E73650A00436F707972696768742032303234204279204A6179204661726999
:20F0600065730A0A0052656164790A006E9F00006E9F00026E9F00046E9F00066E9F000850
:20F080006E9F000A6E9F000C6E9F000E3920FE20FE20FE20FE20FE20FE20FE8E02006F809B
:20F0A0008C040026F910CE0400860CB7FE14860EB7FE0086B4B70026CC20B4BDF1588E00D0
:20F0C00000108E0000CE0000301F313F335F327F20F67FFE3D8EFE406F808CFF402DF98EB8
:20F0E000F000BDF1B38EF01CBDF1B38602B7FF53B6FF5E2705BDF16A20F6860ABDF16A8E90
:20F10000F02FBDF1B38EF046BDF1B38EF065BDF1B3BDF217202D636C7300636F6C6F720092
:20F120006C6F61640065786563007265736574006469720063640063686469720065786911
:20F140007400FFBDF31EBDF1977FFE3D7DFE4027C07FFE4020B520FE6E9F001034108E042A
:20F1600000ED81BCFE022DF935906E9F001234165D2603F600264D271C810A2605BDF197E4
:20F180002013BDF1CDED847C0024B60024B1FE052D03BDF19735966E9F001434167F0024D4
:20F1A0007C0025B60025B1FE072D067A0025BDF1E835966E9F001634561F13BDF1CDA6C02A
:20F1C00027092B07BDF16A300120F335D66E9F00183406B60025F6FE05583D8E0400308B51
:20F1E000F6002458308535866E9F001A34568E04001F13F6FE05584F33CBECC1ED8111B33B
:20F20000FE022DF68620A781BCFE022DF97DFE3E27037A002835D66E9F001C3457FC0024B7
:20F22000FD00278601B7FE3EFC0027FD0024CEFE40F6FE3DF70029F600267D0029270C7A20
:20F240000029A6C02705BDF16A20EF8620F6FE1754545454C40F6DC42702A6C0BDF1CDEDD0
:20F26000847C0024F60026A6C02705BDF16A20F78620F60026BDF1CD8620F60026ED84B667
:20F28000FE2C27A4810D26A07FFE3EBDF1CD8620F60026ED1EFC0027FD0024F600268EFE36
:20F2A00040BDF1B335D76E9F001E3405F6FE2C26FBF6FE2A27FBB6FE2C35856E9F002034C1
:20F2C000018DE381302DFA8139231281412DF28146230A81612DEA8166230220E435816EF4
:20F2E0009F002234018DBF81302DFA8139230220F4358134066D8426066DA4271C200E6D05
:20F30000A42710A680A1A02D042E0820E88601810220098602810120034F81003586340716
:20F320008EFE40108E0100A680A7A026FA86FFA7A48E0100A68081FF271A8127270C812211
:20F340002708812026EE6F1F20EAA18027E681FF271720F6860ABDF16A108EF1168E010053
:20F36000BDF1B38E01008D0312358734671F134FBDF2F3270A1F3131214C6DA42AF21235EE
:01F38000A7E5
:10FFF000F06CF070F074F078F07CF080F084F088B1
:00000001FF
